{
  "contractName": "FundEth",
  "abi": [
    {
      "constant": true,
      "inputs": [
        {
          "name": "",
          "type": "uint256"
        }
      ],
      "name": "projects",
      "outputs": [
        {
          "name": "addr",
          "type": "address"
        },
        {
          "name": "name",
          "type": "string"
        },
        {
          "name": "imageUrl",
          "type": "string"
        },
        {
          "name": "description",
          "type": "string"
        },
        {
          "name": "valid",
          "type": "bool"
        }
      ],
      "payable": false,
      "stateMutability": "view",
      "type": "function"
    },
    {
      "constant": false,
      "inputs": [],
      "name": "kill",
      "outputs": [],
      "payable": false,
      "stateMutability": "nonpayable",
      "type": "function"
    },
    {
      "constant": true,
      "inputs": [],
      "name": "totalProjects",
      "outputs": [
        {
          "name": "",
          "type": "uint256"
        }
      ],
      "payable": false,
      "stateMutability": "view",
      "type": "function"
    },
    {
      "constant": false,
      "inputs": [
        {
          "name": "name",
          "type": "string"
        },
        {
          "name": "description",
          "type": "string"
        },
        {
          "name": "imageUrl",
          "type": "string"
        }
      ],
      "name": "CreateProject",
      "outputs": [],
      "payable": true,
      "stateMutability": "payable",
      "type": "function"
    },
    {
      "constant": false,
      "inputs": [
        {
          "name": "sender",
          "type": "address"
        },
        {
          "name": "receiver",
          "type": "address"
        },
        {
          "name": "amt",
          "type": "uint256"
        }
      ],
      "name": "DonateToProject",
      "outputs": [],
      "payable": true,
      "stateMutability": "payable",
      "type": "function"
    }
  ],
  "bytecode": "0x6060604052336000806101000a81548173ffffffffffffffffffffffffffffffffffffffff021916908373ffffffffffffffffffffffffffffffffffffffff16021790555061083f806100536000396000f30060606040526004361061006d576000357c0100000000000000000000000000000000000000000000000000000000900463ffffffff168063107046bd1461007257806341c0e1b51461027b5780639c361e4e14610290578063c76b0a52146102b9578063fba0b96114610391575b600080fd5b341561007d57600080fd5b61009360048080359060200190919050506103e7565b604051808673ffffffffffffffffffffffffffffffffffffffff1673ffffffffffffffffffffffffffffffffffffffff168152602001806020018060200180602001851515151581526020018481038452888181546001816001161561010002031660029004815260200191508054600181600116156101000203166002900480156101605780601f1061013557610100808354040283529160200191610160565b820191906000526020600020905b81548152906001019060200180831161014357829003601f168201915b50508481038352878181546001816001161561010002031660029004815260200191508054600181600116156101000203166002900480156101e35780601f106101b8576101008083540402835291602001916101e3565b820191906000526020600020905b8154815290600101906020018083116101c657829003601f168201915b50508481038252868181546001816001161561010002031660029004815260200191508054600181600116156101000203166002900480156102665780601f1061023b57610100808354040283529160200191610266565b820191906000526020600020905b81548152906001019060200180831161024957829003601f168201915b50509850505050505050505060405180910390f35b341561028657600080fd5b61028e610456565b005b341561029b57600080fd5b6102a36104e7565b6040518082815260200191505060405180910390f35b61038f600480803590602001908201803590602001908080601f0160208091040260200160405190810160405280939291908181526020018383808284378201915050505050509190803590602001908201803590602001908080601f0160208091040260200160405190810160405280939291908181526020018383808284378201915050505050509190803590602001908201803590602001908080601f016020809104026020016040519081016040528093929190818152602001838380828437820191505050505050919050506104ed565b005b6103e5600480803573ffffffffffffffffffffffffffffffffffffffff1690602001909190803573ffffffffffffffffffffffffffffffffffffffff1690602001909190803590602001909190505061062f565b005b6001818154811015156103f657fe5b90600052602060002090600502016000915090508060000160009054906101000a900473ffffffffffffffffffffffffffffffffffffffff16908060010190806002019080600301908060040160009054906101000a900460ff16905085565b6000809054906101000a900473ffffffffffffffffffffffffffffffffffffffff1673ffffffffffffffffffffffffffffffffffffffff163373ffffffffffffffffffffffffffffffffffffffff1614156104e5576000809054906101000a900473ffffffffffffffffffffffffffffffffffffffff1673ffffffffffffffffffffffffffffffffffffffff16ff5b565b60025481565b60018054806001018281610501919061066a565b9160005260206000209060050201600060a0604051908101604052803373ffffffffffffffffffffffffffffffffffffffff16815260200187815260200185815260200186815260200160011515815250909190915060008201518160000160006101000a81548173ffffffffffffffffffffffffffffffffffffffff021916908373ffffffffffffffffffffffffffffffffffffffff16021790555060208201518160010190805190602001906105ba92919061069c565b5060408201518160020190805190602001906105d792919061069c565b5060608201518160030190805190602001906105f492919061069c565b5060808201518160040160006101000a81548160ff021916908315150217905550505050600260008154809291906001019190505550505050565b8173ffffffffffffffffffffffffffffffffffffffff166108fc829081150290604051600060405180830381858888f1935050505050505050565b81548183558181151161069757600502816005028360005260206000209182019101610696919061071c565b5b505050565b828054600181600116156101000203166002900490600052602060002090601f016020900481019282601f106106dd57805160ff191683800117855561070b565b8280016001018555821561070b579182015b8281111561070a5782518255916020019190600101906106ef565b5b50905061071891906107a6565b5090565b6107a391905b8082111561079f57600080820160006101000a81549073ffffffffffffffffffffffffffffffffffffffff021916905560018201600061076291906107cb565b60028201600061077291906107cb565b60038201600061078291906107cb565b6004820160006101000a81549060ff021916905550600501610722565b5090565b90565b6107c891905b808211156107c45760008160009055506001016107ac565b5090565b90565b50805460018160011615610100020316600290046000825580601f106107f15750610810565b601f01602090049060005260206000209081019061080f91906107a6565b5b505600a165627a7a72305820adecd53e760a25f55af1381a6b737648faa38c62529195b1a2d918667372a6930029",
  "source": "pragma solidity ^0.4.2;\n\n\ncontract owned {\n    address owner;\n\n    modifier onlyowner() {\n        if (msg.sender == owner) {\n            _;\n        }\n    }\n\n    function owned() public {\n        owner = msg.sender;\n    }\n}\n\ncontract mortal is owned {\n    function kill() public {\n        if (msg.sender == owner)\n            selfdestruct(owner);\n    }\n  }\n\ncontract FundEth is mortal {\n\n  struct Project {\n    address addr;\n    string name;\n    string imageUrl;\n    string description;\n    bool valid;\n  }\n\n  Project[] public projects;\n  uint public totalProjects;\n\n\n\n  function CreateProject(string name,string description, string imageUrl) payable public {\n    projects.push(Project({addr: msg.sender, name: name, imageUrl: imageUrl, description: description, valid: true}));\n    totalProjects++;\n  }\n\n  function DonateToProject(address sender, address receiver, uint amt) payable public {\n    receiver.send(amt);\n  }\n}\n",
  "sourcePath": "/Users/jonathanray/Documents/FundEth/contracts/FundEth.sol",
  "compiler": {
    "name": "solc",
    "version": "0.4.18+commit.9cf6e910.Emscripten.clang"
  },
  "schemaVersion": "1.0.1",
  "updatedAt": "2017-12-12T05:28:22.730Z"
}