{
  "contractName": "FundEth",
  "abi": [
    {
      "constant": false,
      "inputs": [
        {
          "name": "receiver",
          "type": "address"
        },
        {
          "name": "amt",
          "type": "uint256"
        }
      ],
      "name": "kill",
      "outputs": [],
      "payable": false,
      "stateMutability": "nonpayable",
      "type": "function"
    },
    {
      "constant": true,
      "inputs": [
        {
          "name": "",
          "type": "uint256"
        }
      ],
      "name": "projectIds",
      "outputs": [
        {
          "name": "",
          "type": "uint256"
        }
      ],
      "payable": false,
      "stateMutability": "view",
      "type": "function"
    },
    {
      "constant": true,
      "inputs": [
        {
          "name": "",
          "type": "uint256"
        }
      ],
      "name": "totalProjects",
      "outputs": [
        {
          "name": "",
          "type": "uint256"
        }
      ],
      "payable": false,
      "stateMutability": "view",
      "type": "function"
    },
    {
      "constant": false,
      "inputs": [
        {
          "name": "projectId",
          "type": "uint256"
        },
        {
          "name": "amount",
          "type": "uint256"
        }
      ],
      "name": "donateToProject",
      "outputs": [
        {
          "name": "",
          "type": "uint256"
        }
      ],
      "payable": true,
      "stateMutability": "payable",
      "type": "function"
    },
    {
      "constant": false,
      "inputs": [
        {
          "name": "name",
          "type": "string"
        },
        {
          "name": "description",
          "type": "string"
        },
        {
          "name": "imageUrl",
          "type": "string"
        }
      ],
      "name": "CreateProject",
      "outputs": [],
      "payable": true,
      "stateMutability": "payable",
      "type": "function"
    },
    {
      "constant": true,
      "inputs": [
        {
          "name": "projectId",
          "type": "uint256"
        }
      ],
      "name": "getProject",
      "outputs": [
        {
          "name": "",
          "type": "address"
        },
        {
          "name": "",
          "type": "string"
        },
        {
          "name": "",
          "type": "string"
        },
        {
          "name": "",
          "type": "string"
        },
        {
          "name": "",
          "type": "uint256"
        }
      ],
      "payable": false,
      "stateMutability": "view",
      "type": "function"
    },
    {
      "constant": true,
      "inputs": [
        {
          "name": "projectId",
          "type": "uint256"
        }
      ],
      "name": "getProject",
      "outputs": [
        {
          "name": "",
          "type": "address"
        },
        {
          "name": "",
          "type": "string"
        },
        {
          "name": "",
          "type": "string"
        },
        {
          "name": "",
          "type": "string"
        },
        {
          "name": "",
          "type": "uint256"
        }
      ],
      "payable": false,
      "stateMutability": "nonpayable",
      "type": "fallback"
    },
    {
      "anonymous": false,
      "inputs": [
        {
          "indexed": false,
          "name": "_value",
          "type": "uint256"
        }
      ],
      "name": "ProjectNumber",
      "type": "event"
    }
  ],
  "bytecode": "0x6060604052336000806101000a81548173ffffffffffffffffffffffffffffffffffffffff021916908373ffffffffffffffffffffffffffffffffffffffff160217905550610998806100536000396000f300606060405260043610610078576000357c0100000000000000000000000000000000000000000000000000000000900463ffffffff16806341c0e1b51461008557806348c35ad41461009a5780639c361e4e146100d1578063a5d9a584146100fa578063c76b0a521461011b578063f0f3f2c8146101f3575b341561008357600080fd5b005b341561009057600080fd5b6100986103a1565b005b34156100a557600080fd5b6100bb6004808035906020019091905050610432565b6040518082815260200191505060405180910390f35b34156100dc57600080fd5b6100e4610456565b6040518082815260200191505060405180910390f35b610119600480803590602001909190803590602001909190505061045c565b005b6101f1600480803590602001908201803590602001908080601f0160208091040260200160405190810160405280939291908181526020018383808284378201915050505050509190803590602001908201803590602001908080601f0160208091040260200160405190810160405280939291908181526020018383808284378201915050505050509190803590602001908201803590602001908080601f01602080910402602001604051908101604052809392919081815260200183838082843782019150505050505091905050610500565b005b34156101fe57600080fd5b61021460048080359060200190919050506105f4565b604051808673ffffffffffffffffffffffffffffffffffffffff1673ffffffffffffffffffffffffffffffffffffffff168152602001806020018060200180602001858152602001848103845288818151815260200191508051906020019080838360005b83811015610294578082015181840152602081019050610279565b50505050905090810190601f1680156102c15780820380516001836020036101000a031916815260200191505b50848103835287818151815260200191508051906020019080838360005b838110156102fa5780820151818401526020810190506102df565b50505050905090810190601f1680156103275780820380516001836020036101000a031916815260200191505b50848103825286818151815260200191508051906020019080838360005b83811015610360578082015181840152602081019050610345565b50505050905090810190601f16801561038d5780820380516001836020036101000a031916815260200191505b509850505050505050505060405180910390f35b6000809054906101000a900473ffffffffffffffffffffffffffffffffffffffff1673ffffffffffffffffffffffffffffffffffffffff163373ffffffffffffffffffffffffffffffffffffffff161415610430576000809054906101000a900473ffffffffffffffffffffffffffffffffffffffff1673ffffffffffffffffffffffffffffffffffffffff16ff5b565b60038181548110151561044157fe5b90600052602060002090016000915090505481565b60025481565b60008160016000858152602001908152602001600020600401600082825401925050819055506001600084815260200190815260200160002060000160009054906101000a900473ffffffffffffffffffffffffffffffffffffffff1690508073ffffffffffffffffffffffffffffffffffffffff166108fc349081150290604051600060405180830381858888f1935050505015156104fb57600080fd5b505050565b600060026000815480929190600101919050555060016000600254815260200190815260200160002090506003805480600101828161053f9190610887565b9160005260206000209001600060025490919091505550338160000160006101000a81548173ffffffffffffffffffffffffffffffffffffffff021916908373ffffffffffffffffffffffffffffffffffffffff160217905550838160010190805190602001906105b19291906108b3565b50828160030190805190602001906105ca9291906108b3565b50818160020190805190602001906105e39291906108b3565b506000816004018190555050505050565b60006105fe610933565b610606610933565b61060e610933565b60006001600087815260200190815260200160002060000160009054906101000a900473ffffffffffffffffffffffffffffffffffffffff166001600088815260200190815260200160002060010160016000898152602001908152602001600020600201600160008a8152602001908152602001600020600301600160008b815260200190815260200160002060040154838054600181600116156101000203166002900480601f0160208091040260200160405190810160405280929190818152602001828054600181600116156101000203166002900480156107355780601f1061070a57610100808354040283529160200191610735565b820191906000526020600020905b81548152906001019060200180831161071857829003601f168201915b50505050509350828054600181600116156101000203166002900480601f0160208091040260200160405190810160405280929190818152602001828054600181600116156101000203166002900480156107d15780601f106107a6576101008083540402835291602001916107d1565b820191906000526020600020905b8154815290600101906020018083116107b457829003601f168201915b50505050509250818054600181600116156101000203166002900480601f01602080910402602001604051908101604052809291908181526020018280546001816001161561010002031660029004801561086d5780601f106108425761010080835404028352916020019161086d565b820191906000526020600020905b81548152906001019060200180831161085057829003601f168201915b505050505091509450945094509450945091939590929450565b8154818355818115116108ae578183600052602060002091820191016108ad9190610947565b5b505050565b828054600181600116156101000203166002900490600052602060002090601f016020900481019282601f106108f457805160ff1916838001178555610922565b82800160010185558215610922579182015b82811115610921578251825591602001919060010190610906565b5b50905061092f9190610947565b5090565b602060405190810160405280600081525090565b61096991905b8082111561096557600081600090555060010161094d565b5090565b905600a165627a7a72305820c09b46aa744fbd0197cba0ddb8111b3a560c0ddb648bfb08a3e0cd3a1bad85ef0029",
  "source": "pragma solidity ^0.4.2;\ncontract owned {\n    address owner;\n    modifier onlyowner() {\n        if (msg.sender == owner) {\n            _;\n        }\n    }\n    function owned() public {\n        owner = msg.sender;\n    }\n}\ncontract mortal is owned {\n    function kill() public {\n        if (msg.sender == owner)\n            selfdestruct(owner);\n    }\n  }\ncontract FundEth is mortal {\n  struct Project {\n    address addr;\n    string name;\n    string imageUrl;\n    string description;\n    uint amt;\n  }\n  event ProjectNumber(uint _value);\n  mapping ( uint => Project ) projects;\n  uint public totalProjects;\n  uint[] public projectIds;\n  function CreateProject(string name,string description, string imageUrl) payable public {\n    totalProjects++;\n    var project = projects[totalProjects];\n    projectIds.push(totalProjects);\n    project.addr = msg.sender;\n    project.name = name;\n    project.description = description;\n    project.imageUrl = imageUrl;\n    project.amt = 0;\n  }\n  function getProject(uint projectId) view public returns (address, string, string, string, uint){\n    return (projects[projectId].addr, projects[projectId].name, projects[projectId].imageUrl, projects[projectId].description, projects[projectId].amt );\n  }\n  function donateToProject(uint projectId, uint amount) payable public {\n    projects[projectId].amt += amount;\n    var addr = projects[projectId].addr;\n    addr.transfer(msg.value);\n  }\n  function () public {\n  }\n}\n",
  "sourcePath": "/home/bo/Desktop/flex_project/truffle_box/contracts/FundEth.sol",
  "compiler": {
    "name": "solc",
    "version": "0.4.18+commit.9cf6e910.Emscripten.clang"
  },
  "schemaVersion": "1.0.1",
  "updatedAt": "2018-01-09T02:01:22.855Z"
}