{
  "contractName": "FundEth",
  "abi": [
    {
      "constant": true,
      "inputs": [
        {
          "name": "",
          "type": "uint256"
        }
      ],
      "name": "projects",
      "outputs": [
        {
          "name": "addr",
          "type": "address"
        },
        {
          "name": "name",
          "type": "string"
        },
        {
          "name": "imageUrl",
          "type": "string"
        },
        {
          "name": "description",
          "type": "string"
        },
        {
          "name": "valid",
          "type": "bool"
        }
      ],
      "payable": false,
      "stateMutability": "view",
      "type": "function"
    },
    {
      "constant": false,
      "inputs": [
        {
          "name": "receiver",
          "type": "address"
        },
        {
          "name": "amt",
          "type": "uint256"
        }
      ],
      "name": "DonateToProject",
      "outputs": [],
      "payable": true,
      "stateMutability": "payable",
      "type": "function"
    },
    {
      "constant": false,
      "inputs": [],
      "name": "kill",
      "outputs": [
        {
          "name": "",
          "type": "uint256"
        }
      ],
      "payable": false,
      "stateMutability": "nonpayable",
      "type": "function"
    },
    {
      "constant": true,
      "inputs": [
        {
          "name": "name",
          "type": "string"
        },
        {
          "name": "description",
          "type": "string"
        },
        {
          "name": "imageUrl",
          "type": "string"
        }
      ],
      "name": "totalProjects",
      "outputs": [
        {
          "name": "",
          "type": "uint256"
        }
      ],
      "payable": false,
      "stateMutability": "view",
      "type": "function"
    },
    {
      "constant": false,
      "inputs": [
        {
          "name": "name",
          "type": "string"
        },
        {
          "name": "description",
          "type": "string"
        },
        {
          "name": "imageUrl",
          "type": "string"
        }
      ],
      "name": "CreateProject",
      "outputs": [],
      "payable": true,
      "stateMutability": "payable",
      "type": "function"
    }
  ],
  "bytecode": "0x6060604052336000806101000a81548173ffffffffffffffffffffffffffffffffffffffff021916908373ffffffffffffffffffffffffffffffffffffffff160217905550610829806100536000396000f30060606040526004361061006d576000357c0100000000000000000000000000000000000000000000000000000000900463ffffffff168063107046bd1461007257806312abacdf1461027b57806341c0e1b5146102b25780639c361e4e146102c7578063c76b0a52146102f0575b600080fd5b341561007d57600080fd5b61009360048080359060200190919050506103c8565b604051808673ffffffffffffffffffffffffffffffffffffffff1673ffffffffffffffffffffffffffffffffffffffff168152602001806020018060200180602001851515151581526020018481038452888181546001816001161561010002031660029004815260200191508054600181600116156101000203166002900480156101605780601f1061013557610100808354040283529160200191610160565b820191906000526020600020905b81548152906001019060200180831161014357829003601f168201915b50508481038352878181546001816001161561010002031660029004815260200191508054600181600116156101000203166002900480156101e35780601f106101b8576101008083540402835291602001916101e3565b820191906000526020600020905b8154815290600101906020018083116101c657829003601f168201915b50508481038252868181546001816001161561010002031660029004815260200191508054600181600116156101000203166002900480156102665780601f1061023b57610100808354040283529160200191610266565b820191906000526020600020905b81548152906001019060200180831161024957829003601f168201915b50509850505050505050505060405180910390f35b6102b0600480803573ffffffffffffffffffffffffffffffffffffffff16906020019091908035906020019091905050610437565b005b34156102bd57600080fd5b6102c561047b565b005b34156102d257600080fd5b6102da61050c565b6040518082815260200191505060405180910390f35b6103c6600480803590602001908201803590602001908080601f0160208091040260200160405190810160405280939291908181526020018383808284378201915050505050509190803590602001908201803590602001908080601f0160208091040260200160405190810160405280939291908181526020018383808284378201915050505050509190803590602001908201803590602001908080601f01602080910402602001604051908101604052809392919081815260200183838082843782019150505050505091905050610512565b005b6001818154811015156103d757fe5b90600052602060002090600502016000915090508060000160009054906101000a900473ffffffffffffffffffffffffffffffffffffffff16908060010190806002019080600301908060040160009054906101000a900460ff16905085565b8173ffffffffffffffffffffffffffffffffffffffff166108fc829081150290604051600060405180830381858888f19350505050151561047757600080fd5b5050565b6000809054906101000a900473ffffffffffffffffffffffffffffffffffffffff1673ffffffffffffffffffffffffffffffffffffffff163373ffffffffffffffffffffffffffffffffffffffff16141561050a576000809054906101000a900473ffffffffffffffffffffffffffffffffffffffff1673ffffffffffffffffffffffffffffffffffffffff16ff5b565b60025481565b600180548060010182816105269190610654565b9160005260206000209060050201600060a0604051908101604052803373ffffffffffffffffffffffffffffffffffffffff16815260200187815260200185815260200186815260200160011515815250909190915060008201518160000160006101000a81548173ffffffffffffffffffffffffffffffffffffffff021916908373ffffffffffffffffffffffffffffffffffffffff16021790555060208201518160010190805190602001906105df929190610686565b5060408201518160020190805190602001906105fc929190610686565b506060820151816003019080519060200190610619929190610686565b5060808201518160040160006101000a81548160ff021916908315150217905550505050600260008154809291906001019190505550505050565b815481835581811511610681576005028160050283600052602060002091820191016106809190610706565b5b505050565b828054600181600116156101000203166002900490600052602060002090601f016020900481019282601f106106c757805160ff19168380011785556106f5565b828001600101855582156106f5579182015b828111156106f45782518255916020019190600101906106d9565b5b5090506107029190610790565b5090565b61078d91905b8082111561078957600080820160006101000a81549073ffffffffffffffffffffffffffffffffffffffff021916905560018201600061074c91906107b5565b60028201600061075c91906107b5565b60038201600061076c91906107b5565b6004820160006101000a81549060ff02191690555060050161070c565b5090565b90565b6107b291905b808211156107ae576000816000905550600101610796565b5090565b90565b50805460018160011615610100020316600290046000825580601f106107db57506107fa565b601f0160209004906000526020600020908101906107f99190610790565b5b505600a165627a7a72305820a438efc3ce189cc82d573c956f78c9a2e2a6e8b1a20c27cd83c74c5d5e27a0ff0029",
  "source": "pragma solidity ^0.4.2;\n\n\ncontract owned {\n    address owner;\n\n    modifier onlyowner() {\n        if (msg.sender == owner) {\n            _;\n        }\n    }\n\n    function owned() public {\n        owner = msg.sender;\n    }\n}\n\ncontract mortal is owned {\n    function kill() public {\n        if (msg.sender == owner)\n            selfdestruct(owner);\n    }\n  }\n\ncontract FundEth is mortal {\n\n  struct Project {\n    address addr;\n    string name;\n    string imageUrl;\n    string description;\n    bool valid;\n  }\n\n  Project[] public projects;\n  uint public totalProjects;\n\n\n\n  function CreateProject(string name,string description, string imageUrl) payable public {\n    projects.push(Project({addr: msg.sender, name: name, imageUrl: imageUrl, description: description, valid: true}));\n    totalProjects++;\n  }\n\n  function DonateToProject(address receiver, uint amt) payable public {\n    receiver.transfer(amt);\n  }\n}\n",
  "sourcePath": "/Users/jonathanray/Documents/FundEth/contracts/FundEth.sol",
  "compiler": {
    "name": "solc",
    "version": "0.4.18+commit.9cf6e910.Emscripten.clang"
  },
  "schemaVersion": "1.0.1",
  "updatedAt": "2017-12-12T19:34:48.646Z"
}