{
  "contractName": "FundEth",
  "abi": [
    {
      "constant": false,
      "inputs": [],
      "name": "kill",
      "outputs": [],
      "payable": false,
      "stateMutability": "nonpayable",
      "type": "function"
    },
    {
      "constant": true,
      "inputs": [
        {
          "name": "",
          "type": "uint256"
        }
      ],
      "name": "projectIds",
      "outputs": [
        {
          "name": "",
          "type": "uint256"
        }
      ],
      "payable": false,
      "stateMutability": "view",
      "type": "function"
    },
    {
      "constant": true,
      "inputs": [
        {
          "name": "projectId",
          "type": "uint256"
        }
      ],
      "name": "totalProjects",
      "outputs": [
        {
          "name": "",
          "type": "uint256"
        }
      ],
      "payable": false,
      "stateMutability": "view",
      "type": "function"
    },
    {
      "constant": false,
      "inputs": [
        {
          "name": "projectId",
          "type": "uint256"
        },
        {
          "name": "amount",
          "type": "uint256"
        },
        {
          "name": "amt",
          "type": "uint256"
        }
      ],
      "name": "donateToProject",
      "outputs": [
        {
          "name": "",
          "type": "bool"
        },
        {
          "name": "",
          "type": "address"
        }
      ],
      "payable": true,
      "stateMutability": "payable",
      "type": "function"
    },
    {
      "constant": false,
      "inputs": [
        {
          "name": "name",
          "type": "string"
        },
        {
          "name": "description",
          "type": "string"
        },
        {
          "name": "imageUrl",
          "type": "string"
        }
      ],
      "name": "CreateProject",
      "outputs": [],
      "payable": true,
      "stateMutability": "payable",
      "type": "function"
    },
    {
      "constant": true,
      "inputs": [
        {
          "name": "projectId",
          "type": "uint256"
        }
      ],
      "name": "getProject",
      "outputs": [
        {
          "name": "",
          "type": "address"
        },
        {
          "name": "",
          "type": "string"
        },
        {
          "name": "",
          "type": "string"
        },
        {
          "name": "",
          "type": "string"
        },
        {
          "name": "",
          "type": "uint256"
        }
      ],
      "payable": false,
      "stateMutability": "view",
      "type": "function"
    },
    {
      "constant": true,
      "inputs": [
        {
          "name": "projectId",
          "type": "uint256"
        }
      ],
      "name": "getProject",
      "outputs": [
        {
          "name": "",
          "type": "address"
        },
        {
          "name": "",
          "type": "string"
        },
        {
          "name": "",
          "type": "string"
        },
        {
          "name": "",
          "type": "string"
        },
        {
          "name": "",
          "type": "uint256"
        }
      ],
      "payable": false,
      "stateMutability": "nonpayable",
      "type": "fallback"
    },
    {
      "anonymous": false,
      "inputs": [
        {
          "indexed": false,
          "name": "_value",
          "type": "uint256"
        }
      ],
      "name": "ProjectNumber",
      "type": "event"
    }
  ],
  "bytecode": "0x6060604052336000806101000a81548173ffffffffffffffffffffffffffffffffffffffff021916908373ffffffffffffffffffffffffffffffffffffffff1602179055506109b0806100536000396000f300606060405260043610610078576000357c0100000000000000000000000000000000000000000000000000000000900463ffffffff16806341c0e1b51461008557806348c35ad41461009a5780639c361e4e146100d1578063a5d9a584146100fa578063c76b0a5214610166578063f0f3f2c81461023e575b341561008357600080fd5b005b341561009057600080fd5b6100986103ec565b005b34156100a557600080fd5b6100bb600480803590602001909190505061047d565b6040518082815260200191505060405180910390f35b34156100dc57600080fd5b6100e46104a1565b6040518082815260200191505060405180910390f35b61011960048080359060200190919080359060200190919050506104a7565b60405180831515151581526020018273ffffffffffffffffffffffffffffffffffffffff1673ffffffffffffffffffffffffffffffffffffffff1681526020019250505060405180910390f35b61023c600480803590602001908201803590602001908080601f0160208091040260200160405190810160405280939291908181526020018383808284378201915050505050509190803590602001908201803590602001908080601f0160208091040260200160405190810160405280939291908181526020018383808284378201915050505050509190803590602001908201803590602001908080601f01602080910402602001604051908101604052809392919081815260200183838082843782019150505050505091905050610518565b005b341561024957600080fd5b61025f600480803590602001909190505061060c565b604051808673ffffffffffffffffffffffffffffffffffffffff1673ffffffffffffffffffffffffffffffffffffffff168152602001806020018060200180602001858152602001848103845288818151815260200191508051906020019080838360005b838110156102df5780820151818401526020810190506102c4565b50505050905090810190601f16801561030c5780820380516001836020036101000a031916815260200191505b50848103835287818151815260200191508051906020019080838360005b8381101561034557808201518184015260208101905061032a565b50505050905090810190601f1680156103725780820380516001836020036101000a031916815260200191505b50848103825286818151815260200191508051906020019080838360005b838110156103ab578082015181840152602081019050610390565b50505050905090810190601f1680156103d85780820380516001836020036101000a031916815260200191505b509850505050505050505060405180910390f35b6000809054906101000a900473ffffffffffffffffffffffffffffffffffffffff1673ffffffffffffffffffffffffffffffffffffffff163373ffffffffffffffffffffffffffffffffffffffff16141561047b576000809054906101000a900473ffffffffffffffffffffffffffffffffffffffff1673ffffffffffffffffffffffffffffffffffffffff16ff5b565b60038181548110151561048c57fe5b90600052602060002090016000915090505481565b60025481565b60008060008360016000878152602001908152602001600020600401600082825401925050819055506001600086815260200190815260200160002060000160009054906101000a900473ffffffffffffffffffffffffffffffffffffffff16905060018192509250509250929050565b6000600260008154809291906001019190505550600160006002548152602001908152602001600020905060038054806001018281610557919061089f565b9160005260206000209001600060025490919091505550338160000160006101000a81548173ffffffffffffffffffffffffffffffffffffffff021916908373ffffffffffffffffffffffffffffffffffffffff160217905550838160010190805190602001906105c99291906108cb565b50828160030190805190602001906105e29291906108cb565b50818160020190805190602001906105fb9291906108cb565b506000816004018190555050505050565b600061061661094b565b61061e61094b565b61062661094b565b60006001600087815260200190815260200160002060000160009054906101000a900473ffffffffffffffffffffffffffffffffffffffff166001600088815260200190815260200160002060010160016000898152602001908152602001600020600201600160008a8152602001908152602001600020600301600160008b815260200190815260200160002060040154838054600181600116156101000203166002900480601f01602080910402602001604051908101604052809291908181526020018280546001816001161561010002031660029004801561074d5780601f106107225761010080835404028352916020019161074d565b820191906000526020600020905b81548152906001019060200180831161073057829003601f168201915b50505050509350828054600181600116156101000203166002900480601f0160208091040260200160405190810160405280929190818152602001828054600181600116156101000203166002900480156107e95780601f106107be576101008083540402835291602001916107e9565b820191906000526020600020905b8154815290600101906020018083116107cc57829003601f168201915b50505050509250818054600181600116156101000203166002900480601f0160208091040260200160405190810160405280929190818152602001828054600181600116156101000203166002900480156108855780601f1061085a57610100808354040283529160200191610885565b820191906000526020600020905b81548152906001019060200180831161086857829003601f168201915b505050505091509450945094509450945091939590929450565b8154818355818115116108c6578183600052602060002091820191016108c5919061095f565b5b505050565b828054600181600116156101000203166002900490600052602060002090601f016020900481019282601f1061090c57805160ff191683800117855561093a565b8280016001018555821561093a579182015b8281111561093957825182559160200191906001019061091e565b5b509050610947919061095f565b5090565b602060405190810160405280600081525090565b61098191905b8082111561097d576000816000905550600101610965565b5090565b905600a165627a7a7230582088acf28ad553afbb5dbc903e135852ff2cc113dcf67ffc8694844a508c05322e0029",
  "source": "pragma solidity ^0.4.2;\n\n\ncontract owned {\n    address owner;\n\n    modifier onlyowner() {\n        if (msg.sender == owner) {\n            _;\n        }\n    }\n\n    function owned() public {\n        owner = msg.sender;\n    }\n}\n\ncontract mortal is owned {\n    function kill() public {\n        if (msg.sender == owner)\n            selfdestruct(owner);\n    }\n  }\n\n\n\n\ncontract FundEth is mortal {\n\n  struct Project {\n    address addr;\n    string name;\n    string imageUrl;\n    string description;\n    uint amt;\n  }\n\n  event ProjectNumber(uint _value);\n\n\n  mapping ( uint => Project ) projects;\n  uint public totalProjects;\n  uint[] public projectIds;\n\n  function CreateProject(string name,string description, string imageUrl) payable public {\n    totalProjects++;\n    var project = projects[totalProjects];\n    projectIds.push(totalProjects);\n\n    project.addr = msg.sender;\n    project.name = name;\n    project.description = description;\n    project.imageUrl = imageUrl;\n    project.amt = 0;\n  }\n\n  function getProject(uint projectId) view public returns (address, string, string, string, uint){\n    return (projects[projectId].addr, projects[projectId].name, projects[projectId].imageUrl, projects[projectId].description, projects[projectId].amt );\n  }\n  function donateToProject(uint projectId, uint amount) payable returns (bool, address){\n    projects[projectId].amt += amount;\n    var addr = projects[projectId].addr;\n    return (true, addr);\n  }\n\n\n\n  function () public {\n\n  }\n\n\n  }\n",
  "sourcePath": "/Users/jonathanray/Documents/FundEth/contracts/FundEth.sol",
  "compiler": {
    "name": "solc",
    "version": "0.4.18+commit.9cf6e910.Emscripten.clang"
  },
  "schemaVersion": "1.0.1",
  "updatedAt": "2017-12-14T19:34:52.073Z"
}