{
  "contractName": "FundEth",
  "abi": [
    {
      "constant": false,
      "inputs": [
        {
          "name": "receiver",
          "type": "address"
        },
        {
          "name": "amt",
          "type": "uint256"
        }
      ],
      "name": "DonateToProject",
      "outputs": [
        {
          "name": "",
          "type": "address"
        },
        {
          "name": "",
          "type": "uint256"
        },
        {
          "name": "imageUrl",
          "type": "string"
        },
        {
          "name": "description",
          "type": "string"
        },
        {
          "name": "valid",
          "type": "bool"
        }
      ],
      "payable": true,
      "stateMutability": "payable",
      "type": "function"
    },
    {
      "constant": false,
      "inputs": [
        {
          "name": "",
          "type": "uint256"
        },
        {
          "name": "amt",
          "type": "uint256"
        }
      ],
      "name": "kill",
      "outputs": [
        {
          "name": "",
          "type": "uint256"
        }
      ],
      "payable": false,
      "stateMutability": "nonpayable",
      "type": "function"
    },
    {
      "constant": true,
      "inputs": [
        {
          "name": "",
          "type": "uint256"
        },
        {
          "name": "description",
          "type": "string"
        },
        {
          "name": "imageUrl",
          "type": "string"
        }
      ],
      "name": "projectIds",
      "outputs": [
        {
          "name": "",
          "type": "uint256"
        }
      ],
      "payable": false,
      "stateMutability": "view",
      "type": "function"
    },
    {
      "constant": true,
      "inputs": [
        {
          "name": "name",
          "type": "string"
        },
        {
          "name": "description",
          "type": "string"
        },
        {
          "name": "imageUrl",
          "type": "string"
        }
      ],
      "name": "totalProjects",
      "outputs": [
        {
          "name": "",
          "type": "uint256"
        },
        {
          "name": "",
          "type": "uint256"
        }
      ],
      "payable": false,
      "stateMutability": "view",
      "type": "function"
    },
    {
      "constant": false,
      "inputs": [
        {
          "name": "name",
          "type": "string"
        },
        {
          "name": "description",
          "type": "string"
        },
        {
          "name": "imageUrl",
          "type": "string"
        }
      ],
      "name": "CreateProject",
      "outputs": [
        {
          "name": "",
          "type": "uint256"
        },
        {
          "name": "",
          "type": "string"
        },
        {
          "name": "",
          "type": "string"
        },
        {
          "name": "",
          "type": "string"
        },
        {
          "name": "",
          "type": "uint256"
        }
      ],
      "payable": true,
      "stateMutability": "payable",
      "type": "function"
    },
    {
      "constant": false,
      "inputs": [
        {
          "name": "projectId",
          "type": "uint256"
        },
        {
          "name": "projectId",
          "type": "uint256"
        },
        {
          "name": "amt",
          "type": "uint256"
        }
      ],
      "name": "numberOfProjects",
      "outputs": [
        {
          "name": "",
          "type": "address"
        },
        {
          "name": "",
          "type": "string"
        },
        {
          "name": "",
          "type": "string"
        },
        {
          "name": "",
          "type": "string"
        },
        {
          "name": "",
          "type": "uint256"
        }
      ],
      "payable": false,
      "stateMutability": "nonpayable",
      "type": "function"
    },
    {
      "constant": true,
      "inputs": [
        {
          "name": "projectId",
          "type": "uint256",
          "indexed": false
        }
      ],
      "name": "getProject",
      "outputs": [
        {
          "name": "",
          "type": "address"
        },
        {
          "name": "",
          "type": "string"
        },
        {
          "name": "",
          "type": "string"
        },
        {
          "name": "",
          "type": "string"
        },
        {
          "name": "",
          "type": "uint256"
        }
      ],
      "payable": false,
      "stateMutability": "view",
      "type": "function",
      "anonymous": false
    },
    {
      "anonymous": false,
      "inputs": [
        {
          "indexed": false,
          "name": "_value",
          "type": "uint256"
        }
      ],
      "name": "ProjectNumber",
      "type": "event"
    }
  ],
  "bytecode": "0x6060604052336000806101000a81548173ffffffffffffffffffffffffffffffffffffffff021916908373ffffffffffffffffffffffffffffffffffffffff160217905550610968806100536000396000f300606060405260043610610083576000357c0100000000000000000000000000000000000000000000000000000000900463ffffffff16806312abacdf1461008857806341c0e1b5146100bf57806348c35ad4146100d45780639c361e4e1461010b578063c76b0a5214610134578063db5e4c7f1461020c578063f0f3f2c814610221575b600080fd5b6100bd600480803573ffffffffffffffffffffffffffffffffffffffff169060200190919080359060200190919050506103cf565b005b34156100ca57600080fd5b6100d2610413565b005b34156100df57600080fd5b6100f560048080359060200190919050506104a4565b6040518082815260200191505060405180910390f35b341561011657600080fd5b61011e6104c8565b6040518082815260200191505060405180910390f35b61020a600480803590602001908201803590602001908080601f0160208091040260200160405190810160405280939291908181526020018383808284378201915050505050509190803590602001908201803590602001908080601f0160208091040260200160405190810160405280939291908181526020018383808284378201915050505050509190803590602001908201803590602001908080601f016020809104026020016040519081016040528093929190818152602001838380828437820191505050505050919050506104ce565b005b341561021757600080fd5b61021f6105c2565b005b341561022c57600080fd5b61024260048080359060200190919050506105c4565b604051808673ffffffffffffffffffffffffffffffffffffffff1673ffffffffffffffffffffffffffffffffffffffff168152602001806020018060200180602001858152602001848103845288818151815260200191508051906020019080838360005b838110156102c25780820151818401526020810190506102a7565b50505050905090810190601f1680156102ef5780820380516001836020036101000a031916815260200191505b50848103835287818151815260200191508051906020019080838360005b8381101561032857808201518184015260208101905061030d565b50505050905090810190601f1680156103555780820380516001836020036101000a031916815260200191505b50848103825286818151815260200191508051906020019080838360005b8381101561038e578082015181840152602081019050610373565b50505050905090810190601f1680156103bb5780820380516001836020036101000a031916815260200191505b509850505050505050505060405180910390f35b8173ffffffffffffffffffffffffffffffffffffffff166108fc829081150290604051600060405180830381858888f19350505050151561040f57600080fd5b5050565b6000809054906101000a900473ffffffffffffffffffffffffffffffffffffffff1673ffffffffffffffffffffffffffffffffffffffff163373ffffffffffffffffffffffffffffffffffffffff1614156104a2576000809054906101000a900473ffffffffffffffffffffffffffffffffffffffff1673ffffffffffffffffffffffffffffffffffffffff16ff5b565b6003818154811015156104b357fe5b90600052602060002090016000915090505481565b60025481565b600060026000815480929190600101919050555060016000600254815260200190815260200160002090506003805480600101828161050d9190610857565b9160005260206000209001600060025490919091505550338160000160006101000a81548173ffffffffffffffffffffffffffffffffffffffff021916908373ffffffffffffffffffffffffffffffffffffffff1602179055508381600101908051906020019061057f929190610883565b5082816003019080519060200190610598929190610883565b50818160020190805190602001906105b1929190610883565b506000816004018190555050505050565b565b60006105ce610903565b6105d6610903565b6105de610903565b60006001600087815260200190815260200160002060000160009054906101000a900473ffffffffffffffffffffffffffffffffffffffff166001600088815260200190815260200160002060010160016000898152602001908152602001600020600201600160008a8152602001908152602001600020600301600160008b815260200190815260200160002060040154838054600181600116156101000203166002900480601f0160208091040260200160405190810160405280929190818152602001828054600181600116156101000203166002900480156107055780601f106106da57610100808354040283529160200191610705565b820191906000526020600020905b8154815290600101906020018083116106e857829003601f168201915b50505050509350828054600181600116156101000203166002900480601f0160208091040260200160405190810160405280929190818152602001828054600181600116156101000203166002900480156107a15780601f10610776576101008083540402835291602001916107a1565b820191906000526020600020905b81548152906001019060200180831161078457829003601f168201915b50505050509250818054600181600116156101000203166002900480601f01602080910402602001604051908101604052809291908181526020018280546001816001161561010002031660029004801561083d5780601f106108125761010080835404028352916020019161083d565b820191906000526020600020905b81548152906001019060200180831161082057829003601f168201915b505050505091509450945094509450945091939590929450565b81548183558181151161087e5781836000526020600020918201910161087d9190610917565b5b505050565b828054600181600116156101000203166002900490600052602060002090601f016020900481019282601f106108c457805160ff19168380011785556108f2565b828001600101855582156108f2579182015b828111156108f15782518255916020019190600101906108d6565b5b5090506108ff9190610917565b5090565b602060405190810160405280600081525090565b61093991905b8082111561093557600081600090555060010161091d565b5090565b905600a165627a7a72305820e4b6688a470aba568825e8f9c0bc68f2d8db9b4d1beadf2e80addd9553a60d390029",
  "source": "pragma solidity ^0.4.2;\r\n\r\n\r\ncontract owned {\r\n    address owner;\r\n\r\n    modifier onlyowner() {\r\n        if (msg.sender == owner) {\r\n            _;\r\n        }\r\n    }\r\n\r\n    function owned() public {\r\n        owner = msg.sender;\r\n    }\r\n}\r\n\r\ncontract mortal is owned {\r\n    function kill() public {\r\n        if (msg.sender == owner)\r\n            selfdestruct(owner);\r\n    }\r\n  }\r\n\r\n\r\n\r\n\r\ncontract FundEth is mortal {\r\n\r\n  struct Project {\r\n    address addr;\r\n    string name;\r\n    string imageUrl;\r\n    string description;\r\n    uint amt;\r\n  }\r\n\r\n  event ProjectNumber(uint _value);\r\n\r\n\r\n  mapping ( uint => Project ) projects;\r\n  uint public totalProjects;\r\n  uint[] public projectIds;\r\n\r\n  function CreateProject(string name,string description, string imageUrl) payable public {\r\n    totalProjects++;\r\n    var project = projects[totalProjects];\r\n    projectIds.push(totalProjects);\r\n\r\n    project.addr = msg.sender;\r\n    project.name = name;\r\n    project.description = description;\r\n    project.imageUrl = imageUrl;\r\n    project.amt = 0;\r\n  }\r\n\r\n  function getProject(uint projectId) view public returns (address, string, string, string, uint){\r\n    return (projects[projectId].addr, projects[projectId].name, projects[projectId].imageUrl, projects[projectId].description, projects[projectId].amt );\r\n  }\r\n\r\n  function numberOfProjects() public {\r\n\r\n  }\r\n\r\n\r\n  function DonateToProject(address receiver, uint amt) payable public {\r\n    receiver.transfer(amt);\r\n  }\r\n}\r\n",
  "sourcePath": "C:\\Users\\Jeff\\Desktop\\Flex\\contracts\\FundEth.sol",
  "compiler": {
    "name": "solc",
    "version": "0.4.18+commit.9cf6e910.Emscripten.clang"
  },
  "schemaVersion": "1.0.1",
  "updatedAt": "2017-12-14T02:05:33.668Z"
}