{
  "contractName": "mortal",
  "abi": [
    {
      "constant": false,
      "inputs": [],
      "name": "kill",
      "outputs": [],
      "payable": false,
      "stateMutability": "nonpayable",
      "type": "function"
    }
  ],
  "bytecode": "0x6060604052336000806101000a81548173ffffffffffffffffffffffffffffffffffffffff021916908373ffffffffffffffffffffffffffffffffffffffff160217905550610112806100536000396000f300606060405260043610603f576000357c0100000000000000000000000000000000000000000000000000000000900463ffffffff16806341c0e1b5146044575b600080fd5b3415604e57600080fd5b60546056565b005b6000809054906101000a900473ffffffffffffffffffffffffffffffffffffffff1673ffffffffffffffffffffffffffffffffffffffff163373ffffffffffffffffffffffffffffffffffffffff16141560e4576000809054906101000a900473ffffffffffffffffffffffffffffffffffffffff1673ffffffffffffffffffffffffffffffffffffffff16ff5b5600a165627a7a72305820d5a362bd91a6a55c5204c17cb318565e3de3386a3d35238f0beac15e043b3eab0029",
  "source": "pragma solidity ^0.4.2;\r\n\r\n\r\ncontract owned {\r\n    address owner;\r\n\r\n    modifier onlyowner() {\r\n        if (msg.sender == owner) {\r\n            _;\r\n        }\r\n    }\r\n\r\n    function owned() public {\r\n        owner = msg.sender;\r\n    }\r\n}\r\n\r\ncontract mortal is owned {\r\n    function kill() public {\r\n        if (msg.sender == owner)\r\n            selfdestruct(owner);\r\n    }\r\n  }\r\n\r\n\r\n\r\n\r\ncontract FundEth is mortal {\r\n\r\n  struct Project {\r\n    address addr;\r\n    string name;\r\n    string imageUrl;\r\n    string description;\r\n    uint amt;\r\n  }\r\n\r\n  event ProjectNumber(uint _value);\r\n\r\n\r\n  mapping ( uint => Project ) projects;\r\n  uint public totalProjects;\r\n  uint[] public projectIds;\r\n\r\n  function CreateProject(string name,string description, string imageUrl) payable public {\r\n    totalProjects++;\r\n    var project = projects[totalProjects];\r\n    projectIds.push(totalProjects);\r\n\r\n    project.addr = msg.sender;\r\n    project.name = name;\r\n    project.description = description;\r\n    project.imageUrl = imageUrl;\r\n    project.amt = 0;\r\n  }\r\n\r\n  function getProject(uint projectId) view public returns (address, string, string, string, uint){\r\n    return (projects[projectId].addr, projects[projectId].name, projects[projectId].imageUrl, projects[projectId].description, projects[projectId].amt );\r\n  }\r\n\r\n  function donateToProject(uint projectId, uint amount) payable public {\r\n    projects[projectId].amt += amount;\r\n    var addr = projects[projectId].addr;\r\n    addr.transfer(msg.value);\r\n  }\r\n\r\n  function () public {\r\n\r\n  }\r\n\r\n}\r\n",
  "sourcePath": "C:\\Users\\Jeff\\Desktop\\Flex\\contracts\\FundEth.sol",
  "compiler": {
    "name": "solc",
    "version": "0.4.18+commit.9cf6e910.Emscripten.clang"
  },
  "schemaVersion": "1.0.1",
  "updatedAt": "2017-12-15T04:37:18.005Z"
}